S019000047657474696E67537461727465724153462E737265637A
S113000045C000004BC0000049C0000047C00000CC
S113001045C0000043C0000041C000003FC00000D4
S11300203DC000003BC0000039C0000037C00000E4
S113003035C0000033C0000031C000002FC00000F4
S11300402DC000002BC0000029C0000027C0000004
S113005025C0000023C0000021C000001FC0000014
S11300601DC000001BC0000019C0000017C0000024
S113007015C0000013C0000011C000000FC0000034
S11300800DC000000BC0000009C0000011241FBEF9
S1130090CFEFD0E4DEBFCDBF18D031C0B1CF8FEFEA
S11300A0809364008093650080916100833059F0EF
S11300B08FB7F8945F9350E85093610053E05093E6
S11300C061005F918FBF08950895FEDFE8DF0D9A08
S11300D00E9A169A159870E260E455E845E431E00A
S11300E020E070B960B9852F942FA32FB22F019708
S11300F0A109B1090097A105B105C9F7F2CFF89498
S1050100FFCF2B
S9030000FC
